S01B000050697A7A614F76656E586D65676141345F76322E73726563F5
S11300000C941C010C9442010C9442010C94420186
S11300100C9442010C9442010C9442010C94420150
S11300200C9442010C9442010C9442010C94420140
S11300300C9442010C9442010C9477090C944201F3
S11300400C9442010C9442010C9442010C94420120
S11300500C94C9090C9442010C9442010C94420181
S11300600C9442010C9442010C9442010C94420100
S11300700C9442010C9442010C9442010C944201F0
S11300800C9442010C9442010C9442010C944201E0
S11300900C9442010C9442010C9442010C944201D0
S11300A00C9442010C9442010C9442010C944201C0
S11300B00C9442010C9442010C9442010C944201B0
S11300C00C9442010C9442010C9442010C944201A0
S11300D00C9442010C9442010C9442010C94420190
S11300E00C9442010C9442010C9442010C94420180
S11300F00C9442010C9442010C9442010C94420170
S11301000C9442010C9442010C9442010C9442015F
S11301100C9442010C9442010C9442010C9442014F
S11301200C9442010C9442010C9442010C9442013F
S11301300C9442010C9442010C9442010C9442012F
S11301400C9442010C9442010C9442010C9442011F
S11301500C9442010C9442010C9442010C9442010F
S11301600C9408090C9442090C9442010C94420129
S11301700C9442010C9442010C9442010C944201EF
S11301800C9442010C9442010C9442010C944201DF
S11301900C9442010C9442010C9442010C944201CF
S11301A00C9442010C9442010C9442010C944201BF
S11301B00C9442010C9442010C9442010C944201AF
S11301C00C9442010C9442010C9442010C9442019F
S11301D00C9442010C9442010C9442010C9442018F
S11301E00C9442010C9442010C9442010C9442017F
S11301F00C9442010C9442010C944201D505E4058F
S1130200E905EE05F3051D06470651065E066E0672
S11302100C94E4050C9447060C94E9050C94D5055C
S11302200C941D060C94F3050C9451060C94EE05E5
S11302300C945E060C946E0611241FBECFEFCDBF46
S1130240DFE3DEBF00E00CBF18BE19BE1ABE1BBE42
S113025011E2A0E0B0E2ECE8FAE100E00BBF02C07A
S113026007900D92A432B107D9F71BBE21E2A4E294
S1130270B1E201C01D92AE3CB207E1F70E94200832
S11302800C94440D0C940000209172213091732140
S113029080915C2190915D218217930740F44091F5
S11302A05921411104C020E42093450606C0821759
S11302B0930718F021E02093592120917421309163
S11302C075212817390740F440915921442321F01E
S11302D080E48093460605C02817390710F0109271
S11302E059212091C8213091C92180915A2190919E
S11302F05B218217930740F440915821411104C0B7
S113030020E22093450606C08217930718F021E0E7
S1130310209358212091CA213091CB2128173907E5
S113032040F440915821442321F080E28093460612
S113033008952817390710F01092582108950F9343
S11303401F93CF93DF93CDB7DEB72A97CDBFDEBF20
S11303508B014AE0BE016F5F7F4F0E940F0DBE010B
S11303606F5F7F4FF801808191810E94FD0C2A9676
S1130370CDBFDEBFDF91CF911F910F91089590E023
S1130380982F8827862B0895809108208823E1F0F0
S1130390E0E4F6E080E88583AFE4B3EC1197F1F78D
S11303A000C000008683AFE4B3EC1197F1F700C0FE
S11303B000008583BFEF20E732E0B1502040304099
S11303C0E1F700C000008683089580910820882307
S11303D051F1E0E4F6E080E88583AFE4B3EC1197F3
S11303E0F1F700C000008683AFE4B3EC1197F1F796
S11303F000C000008583AFE4B3EC1197F1F700C0AF
S113040000008683AFE4B3EC1197F1F700C000005D
S11304108583BFEF20E732E0B15020403040E1F760
S113042000C000008683089580913421882321F040
S113043082E080930506089582E08093060608957D
S1130440803751F4E6ECF1E28081918182839383D9
S11304500397848395830895843649F4E0E7F1E2B1
S11304608081918182839383059784839583089502
S113047070E00E94AF0C892B11F081E0089580E0B8
S113048008958617970728F04817590720F480E045
S1130490089580E0089581E00895E0E0F2E081E0CD
S11304A080A390E291A380A788E281A788E081835A
S11304B0128286E084830895E0E0F2E080E483839E
S11304C080E8838381E080830895CF93DF9300D015
S11304D000D0CDB7DEB719821A821B821C821D821E
S11304E01E8290E02091100230911102FC01EE0F67
S11304F0FF1FEA58FE4D2083318320911202309170
S11305001302FC017496EE0FFF1FEA58FE4D208380
S1130510318330E033C0832F90E044E1489FF00101
S1130520499FF00D1124E20FF11DEE0FFF1FEA5851
S1130530FE4D6081718161157105D1F0FC01EE0FF2
S1130540FF1F41E050E04C0F5D1FE40FF51F408199
S11305505181460F571F4E5B510940835183E5E09B
S1130560F0E0EC0FFD1FE80FF91F80818F5F80839F
S11305702F5F01C020E0243170F23F5F3230D0F3AE
S113058089819A816D8170E00E94AF0CE8E2F1E20A
S1130590608371838B819C816E8170E00E94AF0CBB
S11305A062837383CF012696CDBFDEBFDF91CF91E7
S11305B00895E0E2F3E01182128284E08083808176
S11305C0816080830895E0E0F8E08EE490E086A303
S11305D097A381E0868386E080830895E0E4F8E0D1
S11305E086E891E086A397A381E0868387E08083F1
S11305F00895CF92DF92EF92FF92CF93DF936B0136
S11306007C01E0E6F6E088E0818384E0828341E0D7
S113061060EA79E081E691E20E94A10AC091612139
S1130620D091622183E08D838B818F7C80618B8369
S1130630D701C601880F991FAA1FBB1F880F991FD6
S1130640AA1FBB1F9C01AD01220F331F441F551F5E
S1130650220F331F441F551F60E874E88EE190E0B9
S11306600E94C30CCA01B901615071098109910941
S11306700E94B40B0E94850BE0EAF9E066831782BE
S11306808C8180618C838C8188608C83DF91CF9195
S1130690FF90EF90DF90CF900895CF92DF92EF928A
S11306A0FF920F931F93CF93DF93C0904321D09079
S11306B04421E0904521F0904621D0E0C0E02AC0DA
S11306C081E691E20E94D00A882359F00C2F10E0B1
S11306D081E691E20E94D80AF801EC5DFE4D808328
S11306E0CF5F409143215091442160914521709105
S11306F04621D701C6010396A11DB11D481759070C
S11307006A077B0738F0CF5FEC2FF0E0EC5DFE4D1D
S11307101082D1E0C43010F4DD2391F284E291E23E
S1130720DF91CF911F910F91FF90EF90DF90CF90C9
S11307300895EF92FF920F931F93CF93DF937C0161
S1130740FC0101900020E9F731978F01081B190B78
S11307508091A10985FFFCCFC0E0D0E008C06FEF15
S113076081E691E20E94B40A8823C9F32196C3303A
S1130770D105ACF3C0E0D0E00AC0F701EC0FFD1FD7
S1130780608181E691E20E94B40A81112196C80138
S11307909927C817D9078CF3C0E0D0E008C06FEFE1
S11307A081E691E20E94B40A8823C9F32196C330FA
S11307B0D105ACF3DF91CF911F910F91FF90EF9092
S11307C008950F931F93CF93DF93CDB7DEB7E497CC
S11307D0CDBFDEBF8C0119821A82FE01339680E3FD
S11307E0DF011D928A95E9F7CE0101968BAB9CAB94
S11307F00E94080DBE016D5C7F4FC8010E949F01DD
S11308008BA99CA90E949903E496CDBFDEBFDF911A
S1130810CF911F910F9108958091080682FD34C0F5
S11308208091432190914421A0914521B09146218A
S113083040914B2150914C2160914D2170914E215A
S1130840841B950BA60BB70B8093472190934821EB
S1130850A0934921B0934A2120914F21211132C004
S1130860C297A105B10570F189E090E20E94990355
S113087081E080934F21E0E8F6E088E0868384E01D
S113088086831092552108958091080682FF1AC02C
S113089080914F21882331F081E290E20E949903F4
S11308A010924F218091432190914421A0914521A0
S11308B0B091462180934B2190934C21A0934D21DC
S11308C0B0934E2108958091C6219091C721209123
S11308D05A2130915B21821B930B2091702130911E
S11308E0712140915C2150915D21241B350B45976A
S11308F034F4253131051CF481E080932F2180915B
S11309002E21882321F089E390E20E94990308951F
S1130910813019F48093E507089581E08093E60718
S11309200895682F70E080E090E00E94B40B20E00E
S113093030E040E855E40E94420C20E030E048EC0E
S113094052E40E94130B0E94850B2091250320FF83
S1130950FCCF609338037093390308958091072086
S1130960813011F580910820882371F0E0E4F6E0ED
S113097080E885832FEF30E792E0215030409040AB
S1130980E1F700C000008683809157210E94910402
S1130990E0E8F6E084E0868388E0858381E0809364
S11309A0342180933A213CC0811133C080910820C6
S11309B0882311F1E0E4F6E080E885832FE738E34B
S11309C091E0215030409040E1F700C00000868360
S11309D02FE738E391E0215030409040E1F700C028
S11309E0000085832FE738E391E0215030409040A8
S11309F0E1F700C000008683E0E8F6E088E0868343
S1130A0084E086831092342110923A211092552169
S1130A1007C0823029F481E080933A218093342105
S1130A2083E0809307200895CF93C82F82E30E9428
S1130A309104C13039F4E0E8F6E088E0868384E08C
S1130A40858303C084E080938606CF910895CF9375
S1130A50C82F82E30E949104C13039F4E0E8F6E043
S1130A6084E0868388E0858303C088E080938606DB
S1130A70CF910895FF920F931F93CF93DF93182F75
S1130A80F62E042F2F3F310529F020F0D1E0D20FAC
S1130A90CFEF02C0C22FD0E00E945D0A4C2F50E07D
S1130AA06F2D812F0E94750A4D2F50E0602F812FEA
S1130AB00E94750ADF91CF911F910F91FF900895C5
S1130AC00F931F93CF93DF93C82FD62F8A010E94D1
S1130AD05D0AA8016D2F8C2F0E94750ADF91CF91BA
S1130AE01F910F910895209103203091042048E034
S1130AF060E080E00E943A0583EF91E00197F1F70E
S1130B0000C00000209105203091062048E160E1FA
S1130B1080E00E943A054091022050E060E082E0CB
S1130B200E9460054091012050E068E082E00E944C
S1130B30600540912D2150E060E182E00E94600553
S1130B4083EF91E00197F1F700C00000409100208D
S1130B5050E068E182E00E94600508950F931F93BE
S1130B60CF93DF93CDB7DEB7E497CDBFDEBFDC0113
S1130B704C9119821A82DE01139620E3FD01119231
S1130B802A95E9F79E012F5F3F4F2BAB3CAB50E01A
S1130B90FA013197EA30F10508F0B7C0DC01882783
S1130BA0E250FF4F8F4F0C94E50C11968C918130DD
S1130BB019F480930720A9C0823019F48093072088
S1130BC0A4C010920720A1C011968C910E94140514
S1130BD09CC011968C910E94270597C011968C9108
S1130BE00E94880492C011966C91119712968C9170
S1130BF00E94BF0100E711E2D8018D939C932EE07F
S1130C00E3E5F0E2DE01119601900D922A95E1F7F9
S1130C10BE016D5C7F4F0E949F018BA99CA90E941D
S1130C20990384E60E942002F8012081318148E082
S1130C3060E080E00E943A0568C011966C911197BB
S1130C4012968C910E94BF0106EC11E2D8018D939B
S1130C509C932EE0E1E6F0E2DE01119601900D9204
S1130C602A95E1F7BE016D5C7F4F0E949F018BA91D
S1130C709CA90E94990380E70E942002F801208128
S1130C80318148E160E180E00E943A053EC011965E
S1130C904C914093572150E060E082E00E9460054F
S1130CA034C011968C91811104C081E08093562147
S1130CB02CC0813051F58093502127C011964C915E
S1130CC0411103C01092082003C081E080930820E2
S1130CD050E068E182E00E94600517C011964C91D3
S1130CE011970FE511E2F801408312968C918183EC
S1130CF050E068E082E00E946005D80111964C91B2
S1130D0050E060E182E00E946005E496CDBFDEBF62
S1130D10DF91CF911F910F9108951F93CF93DF938C
S1130D20C82F142F0E94350AD82F612F8C2F0E94B0
S1130D30350A99278D0F911DDF91CF911F91089549
S1130D400E94350A0895FF920F931F93CF93DF9368
S1130D50CDB7DEB7E497CDBFDEBF19821A82FE019C
S1130D60339680E3DF011D928A95E9F7CE0101965F
S1130D708BAB9CAB48E060E080E00E948D068C0168
S1130D806AE00E94380281110EC040E951E064E13A
S1130D9070E0C8010E944102882329F000930320D7
S1130DA01093042002C00E94730548E160E180E0D2
S1130DB00E948D068C016AE00E94380281110EC0E7
S1130DC040E951E064E170E0C8010E9441028823D7
S1130DD029F0009305201093062002C00E94730599
S1130DE060E082E00E94A006182F44E650E060E034
S1130DF070E090E00E944102882319F010930220D1
S1130E0002C00E94730568E082E00E94A006182FC9
S1130E104EE150E060E070E090E00E9441028823DF
S1130E2019F01093012002C00E94730560E182E072
S1130E300E94A006F82E082F10E06AE0C8010E9464
S1130E40380281110CC04AE050E060E070E0C80153
S1130E500E944102882319F0F0922D2102C00E94C1
S1130E60730568E182E00E94A006182F41E050E07B
S1130E7060E070E090E00E944102882319F0109332
S1130E80002002C00E94730585E1EFE6F0E2DE0176
S1130E90119601900D928A95E1F7BE016D5C7F4F2A
S1130EA080910320909104200E949F018BA99CA90A
S1130EB00E9499038FE493EC0197F1F700C00000BE
S1130EC085E1E4E8F0E2DE01119601900D928A9545
S1130ED0E1F7BE016D5C7F4F809105209091062063
S1130EE00E949F018BA99CA90E949903AFE4B3ECD3
S1130EF01197F1F700C0000082E1E9E9F0E2DE01B8
S1130F00119601900D928A95E1F780910220BE011D
S1130F106D5C7F4F90E00E949F018BA99CA90E9469
S1130F2099038FE493EC0197F1F700C0000084E18A
S1130F30EBEAF0E2DE01119601900D928A95E1F759
S1130F4080910120BE016D5C7F4F90E00E949F0163
S1130F508BA99CA90E949903AFE4B3EC1197F1F714
S1130F6000C0000084E1EFEBF0E2DE011196019095
S1130F700D928A95E1F780912D21BE016D5C7F4F22
S1130F8090E00E949F018BA99CA90E9499038FE481
S1130F9093EC0197F1F700C000008FE0E3EDF0E27D
S1130FA0DE01119601900D928A95E1F7809100205F
S1130FB0BE016D5C7F4F90E00E949F018BA99CA9AC
S1130FC00E949903AFE4B3EC1197F1F700C000005D
S1130FD0809103209091042080937021909371213B
S1130FE080910520909106208093C6219093C7217B
S1130FF084E60E94200280E70E9420028091022061
S113100080935721EFE5F1E2809101208083809164
S11310102D21818380910020813019F48093082050
S113102002C01092082082EE90E20E949903E49696
S1131030CDBFDEBFDF91CF911F910F91FF90089537
S11310402FEF84E39CE0215080409040E1F700C002
S11310500000E0E4F6E08081806880838081806421
S11310608083808180628083E0EEF7E0808181600C
S11310708083E0E0F6E084E0828388E1828B8081F3
S113108082608083A0E8B6E08C9184608C938C911C
S113109088608C9380818160808360E875E280E061
S11310A090E00E94F9020E94E3020E94EE020E9474
S11310B04D020E94D902E0EAF0E0828181608283DD
S11310C078940E945C02E0ECF1E08485877F848759
S11310D080912C2181110E9473052FE788E391E010
S11310E0215080409040E1F700C000000E94A30618
S11310F08091432190914421A0914521B0914621B2
S11311008093302190933121A0933221B0933321E5
S11311100E9414020E94630480913A21882321F0E2
S113112081E08093050603C081E0809306068091E8
S11311305E21882351F00E944D038093CC2190932B
S1131140CD210E94AE0510925E2180913521882325
S113115009F444C0809138210E946502FC01809307
S1131160362190933721809138219091392101962D
S11311708093382190933921449721F41092382197
S1131180109239211092352120813181ADECBCECD3
S11311900E94EE0C969587959695879596958795DA
S11311A080935C2190935D21228133810E94EE0C17
S11311B096958795969587959695879580935A21C8
S11311C090935B2163EF70E20E94E1036BE071E2B4
S11311D080915C2190915D210E94E10380915621D0
S11311E0882339F00E94E50181E080935521109213
S11311F0562180915021882321F00E94C40110922D
S113120050210E940C040E94AE040E94440180CF2D
S11312101F920F920FB60F92112408B60F9218BEA8
S113122009B60F9219BE0BB60F921BBE2F933F93B4
S11312304F935F936F937F938F939F93AF93BF93DA
S1131240EF93FF9381E691E20E94E40A882319F068
S113125081E080935E21FF91EF91BF91AF919F91C7
S11312608F917F916F915F914F913F912F910F904B
S11312700BBE0F9009BE0F9008BE0F900FBE0F90CB
S11312801F9018951F920F920FB60F92112408B653
S11312900F9218BE09B60F9219BE0BB60F921BBE61
S11312A02F933F934F935F936F937F938F939F936A
S11312B0AF93BF93EF93FF9381E691E20E94F90A03
S11312C0FF91EF91BF91AF919F918F917F916F911A
S11312D05F914F913F912F910F900BBE0F9009BEDC
S11312E00F9008BE0F900FBE0F901F9018951F927D
S11312F00F920FB60F92112408B60F9218BE09B6BA
S11313000F9219BE8F939F93AF93BF938091432104
S113131090914421A0914521B09146210196A11DAF
S1131320B11D8093432190934421A0934521B09310
S1131330462180913F2190914021A0914121B0917B
S113134042210196A11DB11D80933F21909340211C
S1131350A0934121B093422184369105A105B105A2
S113136058F081E08093352110923F211092402162
S11313701092412110924221BF91AF919F918F9180
S11313800F9009BE0F9008BE0F900FBE0F901F90D4
S113139018951F920F920FB60F92112408B60F9250
S11313A018BE09B60F9219BE2F938F939F93AF93D4
S11313B0BF9380913B2190913C21A0913D21B0911C
S11313C03E210196A11DB11D80933B2190933C21A8
S11313D0A0933D21B0933E2180379741A105B105EB
S11313E038F080912F21811103C081E080932E2158
S11313F0809155218823F1F08091512190915221BF
S1131400A0915321B09154210196A11DB11D809347
S1131410512190935221A0935321B09354218639A2
S11314209105A105B10570F081E0809356211092D9
S1131430552108C01092512110925221109253212B
S113144010925421BF91AF919F918F912F910F9042
S113145009BE0F9008BE0F900FBE0F901F901895F5
S11314608091CF018823E4F30895CF93DF93C82FAD
S1131470D62F0E94300A20E2C29FC0011124DF71DE
S11314808D2BE0ECF1E08083892F8F7181831282B0
S113149086E08287EF93FF930F932F93EBECF1E0B9
S11314A008ED21E004BF20832F910F91FF91EF916C
S11314B0848190E0DF91CF9108950E94300A809159
S11314C0CF0181FF11C086E38093CA01EF93FF939C
S11314D00F932F93EBECF1E008ED21E004BF2083A0
S11314E02F910F91FF91EF9108951F93CF93DF9365
S11314F0C82FD62F142F0E945D0AE0ECF1E083E39D
S1131500828720E2C29FC0011124DF718D2B80836A
S1131510892F8F7181831282148385E38287EF93ED
S1131520FF930F932F93EBECF1E008ED21E004BF60
S113153020832F910F91FF91EF91DF91CF911F9114
S11315400895FC0160837183428314861386168692
S113155015860895FC0195859F5F9370268581E02B
S1131560921301C080E008951F93CF93DF93EC01A1
S1131570162F0E94AA0A882379F09D85FE01E90F9F
S1131580F11D17839F5F93709D87E881F981938193
S11315902A819C7F922B9383DF91CF911F91089591
S11315A0FC012385948581E0291301C080E008951E
S11315B0FC018485DF01A80FB11D13968C919485DD
S11315C09F5F937094870895FC0193859F5F937048
S11315D08485A081B1812C91981749F08385DF011E
S11315E0A80FB11D13962C93938781E0089580E092
S11315F00895FC0196858585981307C00190F081B4
S1131600E02D83818C7F838308958685DF01A80F75
S1131610B11D17968C91A081B1818C9386858F5FC3
S11316208370868708950E94270B0C94080C0E94EF
S1131630010C58F00E94FA0B40F029F45F3F29F0A6
S11316400C94F10B51110C943C0C0C94F70B0E946C
S1131650190C68F39923B1F3552391F3951B550B9A
S1131660BB27AA2762177307840738F09F5F5F4F71
S1131670220F331F441FAA1FA9F335D00E2E3AF0B0
S1131680E0E832D091505040E695001CCAF72BD0C8
S1131690FE2F29D0660F771F881FBB1F2617370719
S11316A04807AB07B0E809F0BB0B802DBF01FF274B
S11316B093585F4F3AF09E3F510578F00C94F10B2C
S11316C00C943C0C5F3FE4F3983ED4F386957795F5
S11316D06795B795F7959F5FC9F7880F911D969504
S11316E0879597F90895E1E0660F771F881FBB1F60
S11316F0621773078407BA0720F0621B730B840B0D
S1131700BA0BEE1F88F7E09508950E94210C88F02B
S11317109F5798F0B92F9927B751B0F0E1F0660FB1
S1131720771F881F991F1AF0BA95C9F714C0B130F2
S113173091F00E943B0CB1E008950C943B0C672F90
S1131740782F8827B85F39F0B93FCCF38695779521
S11317506795B395D9F73EF490958095709561950A
S11317607F4F8F4F9F4F0895E89409C097FB3EF435
S113177090958095709561957F4F8F4F9F4F9923DA
S1131780A9F0F92F96E9BB279395F6958795779558
S11317906795B795F111F8CFFAF4BB0F11F460FF18
S11317A01BC06F5F7F4F8F4F9F4F16C0882311F070
S11317B096E911C0772321F09EE8872F762F05C084
S11317C0662371F096E8862F70E060E02AF09A951F
S11317D0660F771F881FDAF7880F9695879597F914
S11317E0089597F99F6780E870E060E008959FEF9F
S11317F080EC089500240A941616170618060906A4
S1131800089500240A941216130614060506089572
S1131810092E0394000C11F4882352F0BB0F40F4FA
S1131820BF2B11F460FF04C06F5F7F4F8F4F9F4F3A
S1131830089557FD9058440F551F59F05F3F71F0BC
S11318404795880F97FB991F61F09F3F79F0879523
S11318500895121613061406551FF2CF4695F1DFAC
S113186008C0161617061806991FF1CF869571053C
S1131870610508940895E894BB2766277727CB0170
S113188097F908950E94550C0C94080C0E94FA0BC9
S113189038F00E94010C20F0952311F00C94F10B08
S11318A00C94F70B11240C943C0C0E94190C70F34B
S11318B0959FC1F3950F50E0551F629FF001729FF1
S11318C0BB27F00DB11D639FAA27F00DB11DAA1F00
S11318D0649F6627B00DA11D661F829F2227B00D4D
S11318E0A11D621F739FB00DA11D621F839FA00DD8
S11318F0611D221F749F3327A00D611D231F849F28
S1131900600D211D822F762F6A2F11249F5750407E
S11319109AF0F1F088234AF0EE0FFF1FBB1F661FF9
S1131920771F881F91505040A9F79E3F510580F0C2
S11319300C94F10B0C943C0C5F3FE4F3983ED4F30D
S1131940869577956795B795F795E7959F5FC1F766
S1131950FE2B880F911D9695879597F90895AA1BDC
S1131960BB1B51E107C0AA1FBB1FA617B70710F086
S1131970A61BB70B881F991F5A95A9F780959095B8
S1131980BC01CD010895A1E21A2EAA1BBB1BFD01C7
S11319900DC0AA1FBB1FEE1FFF1FA217B307E4074A
S11319A0F50720F0A21BB30BE40BF50B661F771FA2
S11319B0881F991F1A9469F7609570958095909582
S11319C09B01AC01BD01CF010895EE0FFF1F881FDD
S11319D08BBF0790F691E02D1BBE1994A29FB00116
S11319E0B39FC001A39F700D811D1124911DB29F4F
S11319F0700D811D1124911D0895FB01DC010D90D2
S1131A000020E9F7119701900D920020E1F7089565
S1131A10FB01DC0101900D920020E1F70895BB2742
S1131A204A3031F4992322F4BDE2909581959F4F79
S1131A300C941B0DBB27FB015527AA27880F991F60
S1131A40AA1FA41710F0A41B83955051B9F7A05DE9
S1131A50AA3308F0A95DA193009779F7B111B19366
S1131A601192CB010C94340DDC01FC01672F7191B0
S1131A707723E1F7329704C07C916D937083629170
S10F1A80AE17BF07C8F30895F894FFCF19
S1131A8C010332B400B400030170616765302E6445
S1131A9C6F6F725F7377697463682E76616C3D3116
S1131AAC0070616765302E646F6F725F7377697451
S1131ABC63682E76616C3D300070616765302E650D
S1131ACC6C656D656E745F6572726F722E76616C87
S1131ADC3D310070616765302E6E312E76616C3D40
S1131AEC0070616765302E6E302E76616C3D00702F
S1131AFC616765302E74656D70445F7265662E7611
S1131B0C616C3D0070616765302E74656D70505F5B
S1131B1C7265662E76616C3D0070616765302E725D
S1131B2C6F747370642E76616C3D007061676531FF
S1131B3C2E74696D655F6D696E2E76616C3D0070F7
S1131B4C616765312E74696D655F7365632E7661AB
S1131B5C6C3D0070616765312E736E642E76616C1A
S1131B6C3D0070616765322E696E69742E76616C06
S1131B7C3D310070616765302E61637475616C5F13
S1131B8C74656D70502E76616C3D007061676530C4
S1131B9C2E61637475616C5F74656D70442E76612F
S1071BAC6C3D000088
S9030000FC
